:100000000C943F000C9467000C9467000C946700FC
:100010000C9467000C9467000C9467000C946700C4
:100020000C9467000C9467000C9467000C946700B4
:100030000C9467000C9467000C9467000C946700A4
:100040000C9467000C9467000C941B040C946700DC
:100050000C94C2020C94F4020C9467000C94670098
:100060000C9467000C9467000C9467000C94670074
:100070000C9467000C9467000C946700240311240F
:100080001FBECFEFD0E1DEBFCDBF11E0A0E0B1E0F9
:10009000E4E9F9E002C005900D92AE38B107D9F756
:1000A00022E0AEE8B1E001C01D92A433B207E1F74F
:1000B00010E0CFE3D0E004C02197FE010E94C2040B
:1000C000CE33D107C9F70E9452030C94C8040C9494
:1000D00000005E985D985F9A11B812B885E08A9525
:1000E000F1F70000089585B998B985E08A95F1F790
:1000F000000080B108958BB180668BB90895CF93CD
:10010000DF93EC010E946900CE010E947300C82FAA
:100110000E947B008C2FDF91CF9108955D985E9AAD
:100120005F9A85E08A95F1F70000089585B998B93E
:1001300081E08A95F1F75F9862B98FEF81B985E325
:100140008A95F1F700005F9A08955E9A5D9A5F9A2A
:1001500011B812B881E08A95F1F708951F93CF93F3
:10016000DF93EC01162F0E948E00612FCE010E94BA
:1001700096000E94A50085E88A95F1F70000DF91BE
:10018000CF911F9108950E948E006AEA85E595E55A
:100190000E94960065E58AEA9AE20E94960060E86D
:1001A00085E595E50E9496006AEA85E595E50E9459
:1001B000960065E58AEA9AE20E94960060E285E58B
:1001C00095E50E9496000C94A50080EE8AB98BB943
:1001D00011B88FEF84B987B926E040E855E260E0B6
:1001E00070E08EE891E00E945D0260E071E08EE8D0
:1001F00091E00E94A6038BB180728BB90C94C3006E
:10020000EF92FF921F93CF93DF9360E371E08EE84C
:1002100091E00E94A603C0E0D0E0CE010E947F00E2
:10022000182F67E571E08EE891E00E94A00362E577
:1002300071E08EE891E00E94A00362E571E08EE833
:1002400091E00E94A00362E571E08EE891E00E94D7
:10025000A00340E150E0BE018EE891E00E94150449
:1002600064E571E08EE891E00E94A003103130F463
:1002700062E571E08EE891E00E94A00340E150E069
:10028000612F8EE891E00E940E047E012FEFE21AAA
:10029000F20A812F90E08E159F0539F06E2DCE0168
:1002A0000E94AE006AE571E002C06BE671E08EE884
:1002B00091E00E94A6038FEF99E628E181509040DB
:1002C0002040E1F700C000008AE0E816F10411F0D8
:1002D000E701A3CFDF91CF911F91FF90EF90089599
:1002E000FC01918D228D892F90E0805C9F4F821BB5
:1002F00091098F7399270895FC01918D828D98172C
:1003000031F0828DE80FF11D858D90E008958FEF1B
:100310009FEF0895FC01918D828D981761F0828D79
:10032000DF01A80FB11D5D968C91928D9F5F9F7329
:10033000928F90E008958FEF9FEF0895FC01538D09
:10034000448D252F30E0842F90E0821B930B5417AF
:1003500010F0CF960895019708958AE193E0892BD4
:1003600041F080E090E0892B21F00E941A03811176
:100370000DC080E090E0892B71F080E090E0892B47
:1003800051F00E940000811104C008950E940000F5
:10039000F0CF0C9400000895FC01848DDF01A80FBC
:1003A000B11DA35ABF4F2C91848D90E001968F739D
:1003B0009927848FA689B7892C93A089B1898C91BC
:1003C000837080648C93938D848D981306C002880B
:1003D000F389E02D80818F7D80830895EF92FF92D5
:1003E0000F931F93CF93DF93EC0181E0888F9B8D58
:1003F0008C8D981305C0E889F989808185FD26C018
:10040000F62E0B8D10E00F5F1F4F0F731127E02E9C
:100410008C8DE8120CC00FB607FCFACFE889F98979
:10042000808185FFF5CFCE010E94CC01F1CF8B8D6D
:10043000FE01E80FF11DE35AFF4FF0829FB7F894D9
:100440000B8FEA89FB89808180620AC09FB7F8948C
:10045000EE89FF896083E889F989808183708064EF
:1004600080839FBF81E090E0DF91CF911F910F913A
:10047000FF90EF900895CF93DF93EC01888D882350
:10048000C9F0EA89FB89808185FD05C0A889B98901
:100490008C9186FD0FC00FB607FCF5CF808185FFDC
:1004A000F2CFA889B9898C9185FFEDCFCE010E944A
:1004B000CC01E7CFDF91CF910895CF92DF92EF92F9
:1004C000FF921F93CF93DF93EC016A017B01122F00
:1004D000E889F98982E080834115514E61057105F3
:1004E000B1F060E079E08DE390E0A70196010E9411
:1004F000A004DA01C9010197A109B109B695A79530
:10050000979587959C01211580E13807A8F0E88927
:10051000F989108260E874E88EE190E0A701960105
:100520000E94A004DA01C9010197A109B109B69599
:10053000A795979587959C01EC85FD853083EE8581
:10054000FF852083188EEC89FD891083EA89FB8959
:10055000808180618083EA89FB89808188608083D3
:10056000EA89FB89808180688083EA89FB898081B0
:100570008F7D8083DF91CF911F91FF90EF90DF906F
:10058000CF9008951F920F920FB60F9211242F93C0
:100590008F939F93EF93FF93E0919E01F0919F01C2
:1005A0008081E091A401F091A50182FD12C09081AB
:1005B0008091A7018F5F8F732091A801821751F05E
:1005C000E091A701F0E0E257FE4F958F8093A701DD
:1005D00001C08081FF91EF919F918F912F910F909A
:1005E0000FBE0F901F9018951F920F920FB60F928B
:1005F00011242F933F934F935F936F937F938F9328
:100600009F93AF93BF93EF93FF938EE891E00E9487
:10061000CC01FF91EF91BF91AF919F918F917F910D
:100620006F915F914F913F912F910F900FBE0F905F
:100630001F9018958EE891E00E94700121E0892BAF
:1006400009F420E0822F0895EEE8F1E0138212828F
:1006500088EE93E0A0E0B0E084839583A683B7831F
:1006600081E791E09183808385EC90E09587848792
:1006700084EC90E09787868780EC90E0918B808B6C
:1006800081EC90E0938B828B82EC90E0958B848B55
:1006900086EC90E0978B868B118E128E138E148EC3
:1006A000089508950E9465040E9451030E94E50088
:1006B000CDEAD1E00E9400012097E1F30E94AD0154
:1006C000F9CFCF92DF92EF92FF920F931F93CF93C8
:1006D000DF936C017A018B01C0E0D0E0CE15DF051D
:1006E00081F0D8016D918D01D601ED91FC910190C1
:1006F000F081E02DC6010995892B11F02196EECFEE
:100700007E01C701DF91CF911F910F91FF90EF9074
:10071000DF90CF9008956115710579F0FB0101908C
:100720000020E9F73197AF01461B570BDC01ED9133
:10073000FC910280F381E02D099480E090E008951F
:100740000C948B036FE771E00C948B030F931F9352
:10075000CF93DF93EC010E948B038C01CE010E94AA
:10076000A203800F911FDF91CF911F910F910895E8
:100770008F929F92AF92BF92EF92FF920F931F932F
:10078000CF93DF93CDB7DEB7A1970FB6F894DEBF56
:100790000FBECDBF7C01FA01CB0119A2223008F4B3
:1007A0002AE08E010F5D1F4F822E912CA12CB12CBF
:1007B000BF01A50194010E94A004F901CA010150E2
:1007C00011096A3010F4605D01C0695CD8016C9356
:1007D000232B242B252B61F7B801C7010E948B0323
:1007E000A1960FB6F894DEBF0FBECDBFDF91CF91BB
:1007F0001F910F91FF90EF90BF90AF909F908F90BF
:1008000008952115310541F4DC01ED91FC91019031
:10081000F081E02D642F09940C94B8039A01462FBF
:1008200050E060E070E00C9401049A01AB0160E0DC
:1008300070E00C9401041F920F920FB60F921124D6
:100840002F933F938F939F93AF93BF9380912C02ED
:1008500090912D02A0912E02B0912F0230912B0287
:1008600023E0230F2D3720F40196A11DB11D05C0F3
:1008700026E8230F0296A11DB11D20932B02809321
:100880002C0290932D02A0932E02B0932F02809100
:10089000300290913102A0913202B0913302019660
:1008A000A11DB11D8093300290933102A0933202BA
:1008B000B0933302BF91AF919F918F913F912F9150
:1008C0000F900FBE0F901F901895789484B582609A
:1008D00084BD84B5816084BD85B5826085BD85B5E4
:1008E000816085BDEEE6F0E0808181608083E1E893
:1008F000F0E01082808182608083808181608083CB
:10090000E0E8F0E0808181608083E1EBF0E08081CD
:1009100084608083E0EBF0E0808181608083EAE79F
:10092000F0E0808184608083808182608083808128
:10093000816080838081806880831092C1000895E7
:10094000A1E21A2EAA1BBB1BFD010DC0AA1FBB1FD3
:10095000EE1FFF1FA217B307E407F50720F0A21B45
:10096000B30BE40BF50B661F771F881F991F1A94B2
:1009700069F760957095809590959B01AC01BD01DC
:10098000CF010895EE0FFF1F0590F491E02D09941B
:04099000F894FFCF09
:100994002F2F2F2F2F2F2F2F2F2F2F2F2F2F2F2F63
:1009A4002F2F2F2F2F2F2F2F2F454550524F4D2FA5
:1009B400464C41534820696E7465726661636500F4
:1009C4002F2F2F2F2F2F2F2F2F2F2F2F2F2F2F2F33
:1009D4002F2F2F2F2F2F2F2F2F2F2F2F2F2F2F2F23
:1009E4002F003000203A2030780020747279696E2C
:1009F4006720746F2077726974650020000000001E
:100A040000EE0161039E013B0270018A017C010D2D
:0E0A14000A006E616E00696E66006F76660005
:00000001FF
